:020000040000FA
:100000000A128A11F12F00308A000408840A82073C
:1000100000343134323433344134343435343634CA
:10002000423437343834393443342A343034233486
:02003000443456
:100228002530162908008312031323081B29080008
:1002380083120313240820290800831203130910CA
:100248000914080001300A128A11D9220A128A11E7
:10025800080064008001840A0406031900340406B7
:100268002E29F1007108F0007D08253E84007008F1
:10027800831380000130F0007008FD070800FF308C
:100288008312031386008316031789010F30831620
:1002980003138600FF309500811383120313A40112
:1002A800A3010800F1017C087D0603195C295D297A
:1002B8006A297C08253E840083130008F000700832
:1002C800F1000130F0007008FC076A2971086C29F8
:1002D8000800F7003F307705F5007408F600053090
:1002E8000310F60DFF3E031D74290310760DFF3A27
:1002F800013E803875070A128A11D9220A128A111A
:100308000800F10097290130FD027D08253E840090
:1003180083130008F0007008F2007D08253E840071
:1003280080010130F102710803199B299C29A32936
:100338007D08031DA029A1298729A329A3297208BB
:10034800A5290800FB007808FA007A08F4007B0861
:100358000A128A116D210A128A11C02979088400AB
:10036800831300080A128A1129220A128A110130FD
:10037800FA007A08F907C02979088400831300086D
:10038800031DC729C829B229C9290800F1008030EE
:10039800F0007008F300F201EA29831203138910B0
:1003A800710873050319D929DA29DC290915DD290A
:1003B8000911051CE029E129E6297308F0007008F5
:1003C800F204E62989140310F30CEA297308031DC3
:1003D800EE29EF29D1298312031389107208F42911
:1003E8000800F3007308F200720883120313A200D6
:1003F8007008F2007208A1007108F2007208A000EB
:100408000910831603178812831603130910831221
:10041800031389108316031708138316031389100F
:100428008312031309118316031788138316031302
:100438000911831603170810831603130514831272
:1004480003138910091109140800F2007208F0005A
:100458007008F300831203130816730E0F39F000A7
:1004680008087006F0397006880088120330F10019
:100478009730F000F00B3E2AF10B3E2A432A8312F4
:1004880003138816081673080F39F0000808700659
:10049800F0397006880088120330F1009730F000B8
:1004A800F00B542AF10B542A592A83120313881685
:1004B8000800831203132008FF3EF4007408F700B5
:1004C8000A128A1121210A128A11F8018B2A78034B
:1004D800FF3A7707831203132107F4007408840096
:1004E800831300080A128A11CA210A128A11F50018
:1004F8007808831203132207F6007608840075082B
:10050800831380000130F4007408F8078B2A8312E3
:10051800031320087802031C922A932A6B2A942A30
:100528000A128A1121210A128A1108008312031360
:100538000813881308120808F03903388800881649
:10054800C0308316031388008230F500DD30F400D4
:10055800F40BAC2AF50BAC2AB12A20300A128A1106
:10056800D9220A128A1128300A128A11D9220A12AB
:100578008A110C300A128A11D9220A128A11013002
:100588000A128A11D9220A128A1102300A128A1111
:10059800D9220A128A118230F500DD30F400F40BFA
:1005A800D32AF50BD32AD82A0800F2007208F000E3
:1005B8007008F300831203130812730E0F39F0004A
:1005C80008087006F039700688008812720303194B
:1005D800EE2AEF2AF62A02307206031DF42AF52ABB
:1005E800002BF62A0330F1009730F000F00BFA2ABE
:1005F800F10BFA2AFF2A052B0D30F000F00B022B25
:10060800052B8312031388162030720603190D2B4D
:100618000E2B372B081273080F39F00008087006E4
:10062800F039700688008812720303191C2B1D2BE1
:10063800242B02307206031D222B232B2E2B242B56
:100648000330F1009730F000F00B282BF10B282B2A
:100658002D2B332B0D30F000F00B302B332B831266
:1006680003138816372B0800F801FA0104307A02C0
:10067800031C3F2B402B422BAB2BAB2B0130F00044
:100688007A0A482B0310F00DFF3E031D462B700815
:10069800FF3AF100F10E83120313060871060F39B1
:1006A80071068600F90104307902031C5C2B5D2B6E
:1006B8005F2BA02BA02B06080F39F0007009F10062
:1006C800F201F209790AF3000130F4000030F50074
:1006D800702B0310F40DF50DF30B6D2B71087405D9
:1006E800F60072087505F7007608770403197D2B64
:1006F8007E2B952B7908F00002300310F00DFF3E99
:10070800031D812B01307007F1007A0871078400FE
:100718000A128A1103200A128A11F2007208F800DC
:10072800952B0130F0007008F90704307902031C9A
:100738009E2B9F2B5F2BA02B0130F0007008FA072F
:1007480004307A02031CA92BAA2B422BAB2B831251
:1007580003132308F0007008A4007808F00070085C
:10076800A300B62B080083120313BE01BB01C1010D
:10077800BF01C0010A128A119A220A128A110A12AA
:100788008A1143210A128A113C3083120313B500DF
:100798003508F000F101F10A3D300A128A11F521FD
:1007A8000A128A11D72B0A128A1138230A128A11BF
:1007B800252E9F2E0A128A1156210A128A11831297
:1007C8000313B5003508C10041304106031DED2B68
:1007D800EE2BF32B6430BF000030C0009F2E423058
:1007E8004106031DF82BF92BFE2B6E30BF0000309D
:1007F800C0009F2E43304106031D032C042C092CF6
:100808007830BF000030C0009F2E44304106031DE1
:100818000E2C0F2C142C8230BF000030C0009F2EED
:1008280031304106031D192C1A2C1F2C8C30BF00A7
:100838000030C0009F2E32304106031D242C252C89
:100848002A2C9630BF000030C0009F2E333041065E
:10085800031D2F2C302C352CA030BF000030C000D9
:100868009F2E34304106031D3A2C3B2C402CAA30D5
:10087800BF000030C0009F2E35304106031D452CB7
:10088800462C4B2CB430BF000030C0009F2E3630B1
:100898004106031D502C512C562CBE30BF00003091
:1008A800C0009F2E37304106031D5B2C5C2C612C49
:1008B800C830BF000030C0009F2E38304106031DED
:1008C800662C672C6C2CD230BF000030C0009F2EE5
:1008D80039304106031D712C722C772CDC30BF0097
:1008E8000030C0009F2E61304106031D7C2C7D2CFA
:1008F800822CE630BF000030C0009F2E62304106D7
:10090800031D872C882C8D2CF030BF000030C000D0
:100918009F2E63304106031D922C932C982CFA309D
:10092800BF000030C0009F2E64304106031D9D2C7F
:100938009E2C9F2E0430BF000130C0009F2E9F2E9A
:100948009F2E9F2E9F2E9F2E9F2E9F2E9F2E9F2E37
:100958009F2E9F2E9F2E9F2E9F2E9F2E9F2E9F2E27
:100968003C146530BF000030C0009F2EBD1CBD2C5C
:10097800BE2C9F2E0A30BF000030C0009F2E9F2E35
:10098800BC146F30BF000030C0009F2EBD1DCD2CA1
:10099800CE2C9F2E0A30BF000030C0009F2E9F2E05
:1009A8003C157930BF000030C0009F2EBD1EDD2CE5
:1009B800DE2C9F2E0A30BF000030C0009F2E9F2ED5
:1009C800BC158330BF000030C0009F2EBD1FED2C2A
:1009D800EE2C9F2E0A30BF000030C0009F2E9F2EA5
:1009E800063083120313B7001330B600AD30B500DC
:1009F800B50BFC2CB60BFC2CB70BFC2C8D308312E2
:100A08000313BF000030C0009F2E0A30BF00003023
:100A1800C0009F2E0B3083120313B7002630B60098
:100A28005D30B500B50B162DB60B162DB70B162D70
:100A3800973083120313BF000030C0009F2E0A3086
:100A4800BF000030C0009F2E103083120313B70080
:100A58003930B6000D30B500B50B302DB60B302D42
:100A6800B70B302DA13083120313BF000030C00034
:100A78009F2E0A30BF000030C0009F2E1530831211
:100A88000313B7004B30B600BD30B500B50B4A2D87
:100A9800B60B4A2DB70B4A2D512DAB3083120313D9
:100AA800BF000030C0009F2E0A30BF000030C000D9
:100AB8009F2E1A3083120313B7005E30B6006D30D4
:100AC800B500B50B652DB60B652DB70B652D6C2DD7
:100AD800B53083120313BF000030C0009F2E0A30C8
:100AE800BF000030C0009F2E1F3083120313B700D1
:100AF8007130B6001D30B500B50B802DB60B802DBA
:100B0800B70B802D872DBF3083120313BF00003031
:100B1800C0009F2E0A30BF000030C0009F2E243036
:100B280083120313B7008330B600CE30B500B50B7F
:100B38009B2DB60B9B2DB70B9B2D0000C930831244
:100B48000313BF000030C0009F2E0A30BF000030E2
:100B5800C0009F2E293083120313B7009630B600C9
:100B68007E30B500B50BB62DB60BB62DB70BB62D2E
:100B78000000D33083120313BF000030C0009F2E43
:100B88000A30BF000030C0009F2E2E30831203139E
:100B9800B700A930B6002E30B500B50BD12DB60B75
:100BA800D12DB70BD12D0000DD3083120313BF0008
:100BB8000030C0009F2E0A30BF000030C0009F2EBA
:100BC8003C10E730BF000030C0009F2E3D1CED2DCB
:100BD800EE2D9F2E0A30BF000030C0009F2E9F2EA2
:100BE800BC10F130BF000030C0009F2E3D1DFD2D10
:100BF800FE2D9F2E0A30BF000030C0009F2E9F2E72
:100C08003C11FB30BF000030C0009F2E3D1E0D2E52
:100C18000E2E9F2E0A30BF000030C0009F2E9F2E40
:100C2800BC110530BF000130C0009F2E3D1F1D2E96
:100C38001E2E9F2E0A30BF000030C0009F2E9F2E10
:100C48009F2E831203134008003A03192F2E013AEE
:100C58000319972E9F2E3F08003A03199F2E0A3A30
:100C68000319DE2B6E3A0319B42C013A0319BA2C76
:100C78000B3A0319C42C013A0319CA2C173A031961
:100C8800D42C013A0319DA2CFB3A0319E42C013A63
:100C98000319EA2C0F3A0319F42C013A0319092D08
:100CA8001B3A03190E2D013A0319232D373A03195C
:100CB800282D013A03193D2D0B3A0319422D013A0B
:100CC8000319582D1F3A03195D2D013A0319732D85
:100CD8000B3A0319782D013A03198E2D773A031927
:100CE800932D013A0319A92D1B3A0319AE2D013A88
:100CF8000319C42D0F3A0319C92D013A0319DF2D21
:100D08003B3A0319E42D013A0319EA2D173A03195E
:100D1800F42D013A0319FA2D0B3A0319042E013A5E
:100D280003190A2E9F2E3F08043A0319142E013A7C
:100D380003191A2E9F2E0A128A1117210A128A11D4
:100D4800003A0319A82EA92EE72F0A128A111C218E
:100D58000A128A11003A031DB22EB32EE72F0A1287
:100D68008A1117210A128A1183120313B500350854
:100D7800BE009C2F0130B5003508B807381CC52EB9
:100D8800C62ECD2E3E080A128A1135210A128A1162
:100D9800D62F831203133E0820380A128A113521F0
:100DA8000A128A11D62FD62F013083120313B500E9
:100DB8003508B907391CE12EE22EE92E3E080A1241
:100DC8008A1135210A128A11D62F831203133E087D
:100DD80020380A128A1135210A128A11D62FD62FE5
:100DE800013083120313B5003508BA073A1CFD2EEB
:100DF800FE2E052F3E080A128A1135210A128A1181
:100E0800D62F831203133E0820380A128A1135217F
:100E18000A128A11D62FD62F013083120313B50078
:100E28003508BB073B1C192F1A2F212F3E080A1221
:100E38008A1135210A128A11D62F831203133E080C
:100E480020380A128A1135210A128A11D62FD62F74
:100E580010300A128A1185210A128A110A128A117F
:100E680026210A128A1183120313BB01BA01B901A0
:100E7800B801D62F462F462F462F462F462F462FEE
:100E8800462F462F3E080A128A1135210A128A1166
:100E9800D62F652F83120313B8018E2FB801B80A15
:100EA8008E2FB9018E2FB901B90A8E2FBA018E2F54
:100EB800BA01BA0A8E2FBB018E2FBB01BB0A8E2F37
:100EC8008E2F01300A128A1185210A128A11831283
:100ED8000313B500B6013608003A0319742F8E2F94
:100EE8003508413A03194E2F033A0319552F013A91
:100EF80003195A2F073A03195F2F253A0319522F5E
:100F0800033A0319572F013A03195C2F073A0319BB
:100F1800612F8E2F0A128A1126210A128A11D62FC2
:100F28000A3083120313BF000030C000D62FD62F1B
:100F38003E08B500B6013608003A0319A42FD62F8B
:100F48003508233A0319942F093A0319652F1A3AD9
:100F580003192C2F013A0319462F033A0319462F78
:100F6800013A0319462F073A0319462F013A031984
:100F7800462F033A0319462F013A0319462F0F3A11
:100F88000319462F013A0319462F783A0319BE2E42
:100F9800033A0319D82E013A0319F42E073A031914
:100FA800102FD62FF8010A128A1114210A128A1159
:100FB80083120313B5003508F90000300A128A11AC
:100FC800A6210A128A110A128A115D220A128A11AE
:100FD800D72BD72B0A128A110028FC01FD01831395
:100FE8002030840035300A128A112D210A128A1104
:080FF80083010A128A11B72BD4
:02400E00D4EFED
:00000001FF
